{
  "_format": "hh-sol-artifact-1",
  "contractName": "AuditoriaContract",
  "sourceName": "contracts/AuditoriaContract.sol",
  "abi": [
    {
      "inputs": [
        {
          "internalType": "uint256",
          "name": "_relatedDate",
          "type": "uint256"
        }
      ],
      "name": "addAuditoria",
      "outputs": [],
      "stateMutability": "nonpayable",
      "type": "function"
    },
    {
      "inputs": [
        {
          "internalType": "uint256",
          "name": "",
          "type": "uint256"
        }
      ],
      "name": "auditorias",
      "outputs": [
        {
          "internalType": "uint256",
          "name": "createdDate",
          "type": "uint256"
        },
        {
          "internalType": "uint256",
          "name": "relatedDate",
          "type": "uint256"
        }
      ],
      "stateMutability": "view",
      "type": "function"
    },
    {
      "inputs": [
        {
          "internalType": "uint256",
          "name": "index",
          "type": "uint256"
        }
      ],
      "name": "getAuditoria",
      "outputs": [
        {
          "components": [
            {
              "internalType": "uint256",
              "name": "createdDate",
              "type": "uint256"
            },
            {
              "internalType": "uint256",
              "name": "relatedDate",
              "type": "uint256"
            }
          ],
          "internalType": "struct AuditoriaContract.Auditoria",
          "name": "",
          "type": "tuple"
        }
      ],
      "stateMutability": "view",
      "type": "function"
    },
    {
      "inputs": [],
      "name": "getTotalAuditorias",
      "outputs": [
        {
          "internalType": "uint256",
          "name": "",
          "type": "uint256"
        }
      ],
      "stateMutability": "view",
      "type": "function"
    }
  ],
  "bytecode": "0x6080604052348015600f57600080fd5b5061042c8061001f6000396000f3fe608060405234801561001057600080fd5b506004361061004c5760003560e01c806371dbc1091461005157806387dfdc6e1461006d578063c41e1a491461009e578063f2698968146100ce575b600080fd5b61006b60048036038101906100669190610271565b6100ec565b005b61008760048036038101906100829190610271565b610145565b6040516100959291906102ad565b60405180910390f35b6100b860048036038101906100b39190610271565b610179565b6040516100c59190610314565b60405180910390f35b6100d6610210565b6040516100e3919061032f565b60405180910390f35b600060405180604001604052804281526020018381525090806001815401808255809150506001900390600052602060002090600202016000909190919091506000820151816000015560208201518160010155505050565b6000818154811061015557600080fd5b90600052602060002090600202016000915090508060000154908060010154905082565b61018161021c565b60008054905082106101c8576040517f08c379a00000000000000000000000000000000000000000000000000000000081526004016101bf906103a7565b60405180910390fd5b600082815481106101dc576101db6103c7565b5b9060005260206000209060020201604051806040016040529081600082015481526020016001820154815250509050919050565b60008080549050905090565b604051806040016040528060008152602001600081525090565b600080fd5b6000819050919050565b61024e8161023b565b811461025957600080fd5b50565b60008135905061026b81610245565b92915050565b60006020828403121561028757610286610236565b5b60006102958482850161025c565b91505092915050565b6102a78161023b565b82525050565b60006040820190506102c2600083018561029e565b6102cf602083018461029e565b9392505050565b6102df8161023b565b82525050565b6040820160008201516102fb60008501826102d6565b50602082015161030e60208501826102d6565b50505050565b600060408201905061032960008301846102e5565b92915050565b6000602082019050610344600083018461029e565b92915050565b600082825260208201905092915050565b7f496e646578206f7574206f6620626f756e647300000000000000000000000000600082015250565b600061039160138361034a565b915061039c8261035b565b602082019050919050565b600060208201905081810360008301526103c081610384565b9050919050565b7f4e487b7100000000000000000000000000000000000000000000000000000000600052603260045260246000fdfea2646970667358221220c69899de1d0ede86d612c68d49a29b26ed2e39eeaeed176d155bcd3734f5067d64736f6c634300081c0033",
  "linkReferences": {},
  "deployedLinkReferences": {}
}